S016000066696E616C5F43617073746F6E652E7372656368
S11300004BC0000066C0000064C0000062C0000075
S113001060C000005EC000005CC000005AC0000068
S113002058C0000056C0000054C0000052C0000078
S113003050C000004EC000004CC000004AC0000088
S113004049C0000046C0000044C0000042C0000097
S113005040C000003EC000003CC000003AC00000A8
S113006038C0000036C0000034C0000032C00000B8
S113007030C000002EC000002CC000002AC00000C8
S113008028C0000026C0000024C000006364696E1C
S11300906F70737578585B0011241FBECFEFD0E1E9
S11300A0DEBFCDBF11E0A0E0B1E0E2EAFAE000E09B
S11300B00BBF02C007900D92A032B107D9F721E01F
S11300C0A0E2B1E001C01D92AC32B207E1F771D0F9
S11300D0E6C496CF1F920F920FB60F9211240BB65F
S11300E00F92CF92DF92EF92FF920F931F932F9371
S11300F03F934F935F936F937F938F939F93AF93AC
S1130100BF93EF93FF93C0902201D0902301E0901E
S11301102401F09025018091200190912101970103
S113012086010F5F1F4F2F4F3F4F489668EE73E0D5
S1130130E3D06B01770FEE08FF08C00ED11EE21E5C
S1130140F31EC701B60128EE33E040E050E0E7D0EB
S1130150C0922201D0922301E0922401F092250161
S11301607093210160932001FF91EF91BF91AF91B2
S11301709F918F917F916F915F914F913F912F91BB
S11301801F910F91FF90EF90DF90CF900F900BBED7
S11301900F900FBE0F901F9018952FB7F894609191
S11301A022017091230180912401909125012FBF98
S11301B00895CF93DF931F92CDB7DEB7E6E2F1E067
S11301C08EE091E09383828380E091E09183808349
S11301D0E1E6F0E080818E7F808366D054D083B7DF
S11301E0846083BF87B7816087BF7894D6DF2B0193
S11301F03C0180B180FBAA24A0F8B12CCE01019669
S11302004C010F2EFCE12F2EF1E03F2EF02DC5DF27
S11302106B017C0180B1082F017010E0A016B106BB
S113022059F4D701C60184199509A609B709893873
S11302309341A105B10558F30115110591F09F9261
S11302408F923F922F92A6D089812AD0898190E003
S11302509CD00F900F900F900F90260137015801FA
S1130260D6CF9F928F923F922F9294D0898118D0AB
S1130270898190E08AD00F900F900F900F90260103
S113028037015801C4CF109290008FEC89B9599A64
S1130290E5E9F0E0808186608083549A539A08955A
S11302A05D9BFECF8CB90895109298008FEC8093DB
S11302B09900EBE9F0E0808182608083EDE9F0E071
S11302C0808186608083EAE9F0E0808180618083B8
S11302D08081886080830895EBE9F0E0908195FF48
S11302E0FDCF80939C000895EBE9F0E080818823A2
S11302F0ECF780919C00089597FB072E16F4009468
S113030006D077FD08D02DD007FC05D03EF490959B
S113031081959F4F0895709561957F4F0895A1E24F
S11303201A2EAA1BBB1BFD010DC0AA1FBB1FEE1F6B
S1130330FF1FA217B307E407F50720F0A21BB30BB6
S1130340E40BF50B661F771F881F991F1A9469F732
S113035060957095809590959B01AC01BD01CF018E
S11303600895AA1BBB1B51E107C0AA1FBB1FA617F8
S1130370B70710F0A61BB70B881F991F5A95A9F74A
S113038080959095BC01CD010895609128017091EC
S113039029012DC3CF93DF93CDB7DEB7AE014B5FF9
S11303A05F4FFA0161917191AF01809126019091A3
S11303B02701B5D1DF91CF91089520FD09C0FC013B
S11303C023FD05C022FF02C07383628351834083EF
S11303D0089544FD17C046FD17C0AB01BC01DA0106
S11303E0FB01AA0FBB1FEE1FFF1F1094D1F74A0F8A
S11303F05B1F6E1F7F1FCB01BA01660F771F881F1B
S1130400991F09C033E001C034E0660F771F881FCD
S1130410991F3150D1F7620F711D811D911D0895EF
S11304200F931F93CF93DF938C01C801A2D2EC01E9
S113043097FD06C08BD2892BC1F7B801CE0113D327
S1130440CE01DF91CF911F910F9108958F929F92CA
S1130450AF92BF92EF92FF920F931F93CF93DF93CC
S11304608C01D62F7A01B22E84D29C0133272B32F1
S1130470310531F02D32310559F48B2D8068B82EB9
S1130480D15011F480E061C0C80173D297FDFACF56
S1130490CB2DCD7F2B2D2073F9F48033E9F4AA24DE
S11304A0AA94AD0E09F43EC0C80163D297FD3AC0C8
S11304B09C012F7D33272835310541F4C264D25085
S11304C089F1C80156D297FF07C02CC0B6FE02C0FE
S11304D0C26001C0C261DA2D812C912C540120ED3F
S11304E0280F283078F0C4FF03C0B801BCD217C06D
S11304F02A3040F0C6FFF9CF2F7D3FEE320F363061
S1130500A0F727504C2FC501B40163DF4B015C01F8
S1130510C260D15051F0C8012CD297FFE0CFC1FD89
S113052004C0B0CF812C912C5401C7FF08C0B094F3
S1130530A09490948094811C911CA11CB11C2C2F1C
S1130540B501A401C70139DF81E0DF91CF911F918B
S11305500F91FF90EF90BF90AF909F908F90089570
S11305605F926F927F928F929F92AF92BF92CF923F
S1130570DF92EF92FF920F931F93CF93DF93CDB748
S1130580DEB7A0970FB6F894DEBF0FBECDBF5C01F7
S1130590962E7A01F9018E010F5F1F4F680180E2E8
S11305A0D8011D928A95E9F7D50113968C9080E0C5
S11305B090E0612C712C30E061E070E083FC2591C7
S11305C083FE21918F01522E211103C080E090E01F
S11305D090C02E3511F4009751F1432F50E0481785
S11305E059073CF42D3559F12D3219F4772009F1CE
S11305F003C0772009F468C0452D46954695469575
S1130600D601A40FB11D452D47708B0102C0000F08
S1130610111F4A95E2F7A8015C91452B4C93651490
S113062059F0561410F45394E7CF5A94E5CF31E0BF
S113063004C07724739401C0712C0196BFCF772036
S113064019F08E8180628E83311103C088248394D3
S113065017C0F6019E012F5D3F4F808180958193E5
S11306602E173F07D1F7F2CFE114F10429F0D70197
S11306708C93F70131967F019A94812C9920E9F0AB
S1130680C50177D197FD17C0FC01FF2723E0F5953D
S1130690E7952A95E1F7EC0DFD1D208130E0AC01D2
S11306A04770552702C0359527954A95E2F720FDF6
S11306B0DBCFB501D8D1811089CFE114F10411F059
S11306C0D7011C92C80115C0422F46954695469500
S11306D0D601A40FB11D422F47708B0102C0000F39
S11306E0111F4A95E2F7A8015C91452B4C93622EA9
S11306F0A4CFA0960FB6F894DEBF0FBECDBFDF9196
S1130700CF911F910F91FF90EF90DF90CF90BF900A
S1130710AF909F908F907F906F905F9008955F92BD
S11307206F927F928F929F92AF92BF92CF92DF92FD
S1130730EF92FF920F931F93CF93DF936C01EB0122
S11307405A01FC0117821682512CF601E380FE0146
S1130750E3FC8591E3FE8191182FEF01882309F4CE
S1130760E0C090E0F3D0892B19F0C60159DEEDCF3B
S1130770153241F4FE01E3FC1591E3FE1191EF0102
S1130780153271F4C601F5D097FDC9C0412F50E070
S11307909C01332724173507C1F2B60164D1C1C0C7
S11307A01A3239F4E3FC1591E3FE1191EF0101E0F3
S11307B001C000E0F12C20ED210F2A3078F4026012
S11307C06F2D70E080E090E040E203DEF62EFE0143
S11307D0E3FC1591E3FE1191EF01EDCF01FF03C09E
S11307E0F11003C09EC0FF24FA94183619F01C3689
S11307F051F010C0FE01E3FC1591E3FE1191EF01ED
S1130800183641F408600460FE01E3FC1591E3FE30
S11308101191EF01112309F484C0612F70E08CE879
S113082090E09CD0892B09F47CC000FD07C0F50141
S113083080809180C50102965C0102C0812C912CBC
S11308401E3649F4F6014681578160E070E0202F9E
S1130850C401B3DD7ACF1336A1F401FD02C0FF2435
S1130860F394C60186D097FD5AC08114910429F0EF
S1130870F4018083C40101964C01FA94F110F1CF84
S11308804AC01B3551F49E01A4016F2DC60168DED8
S1130890EC01892B09F03FC039C0C601C1DD97FDC9
S11308A03EC01F3649F128F4143621F1193639F1C6
S11308B025C0133771F01537E9F020C08114910475
S11308C029F0F4016082C40101964C01FA94FF20DE
S11308D059F0C6014ED03C0197FD06C037D0892B94
S11308E069F3B601C301BFD081149104A1F0F401EE
S11308F0108211C0006203C0006101C00064202F97
S1130900A4016F2DC601A2DD811105C0F60183810A
S1130910807329F406C000FD18CF539416CF5520D8
S113092019F0852D90E002C08FEF9FEFDF91CF91FA
S11309301F910F91FF90EF90DF90CF90BF90AF90F9
S11309409F908F907F906F905F9008959111A4C0B5
S1130950803219F089508550D0F70895FC01059034
S1130960061621F00020D9F7C00108953197CF0170
S11309700895CF93DF93EC012B8120FF33C026FF32
S11309800AC02F7B2B838E819F8101969F838E8348
S11309908A8190E029C022FF0FC0E881F98180811B
S11309A0082E000C990B009719F420622B831AC0AF
S11309B03196F983E8830EC0EA85FB85099597FF94
S11309C009C02B81019611F080E201C080E1822BE5
S11309D08B8308C02E813F812F5F3F4F3F832E833F
S11309E0992702C08FEF9FEFDF91CF9108950F9366
S11309F01F93CF93DF93FB01238121FD03C08FEF6E
S1130A009FEF2CC022FF16C0468157812481358177
S1130A104217530744F4A081B1819D012F5F3F4FDA
S1130A20318320838C93268137812F5F3F4F378317
S1130A30268314C08B01EC01FB010084F185E02DB9
S1130A400995892BE1F6D80116968D919C911797FB
S1130A50019617969C938E931697CE01DF91CF91B2
S1130A601F910F910895FB01238120FF12C026FDE1
S1130A7010C08F3F3FEF930761F082832F7D206486
S1130A80238326813781215031093783268399278F
S1130A9008958FEF9FEF0895992788270895F89474
S1050AA0FFCF82
S1130AA200000001000000000000740100000000CA
S1130AB20002000000006C01000000002563000039
S9030000FC
